:100000000C945E000C9486000C9486000C94860080
:100010000C9486000C9486000C9486000C94860048
:100020000C9486000C9486000C9486000C94860038
:100030000C9486000C9486000C9486000C94860028
:100040000C94750B0C9486000C94E50B0C94BF0B70
:100050000C9486000C9486000C9486000C94860008
:100060000C94170C0C94860000000008000201009C
:100070000003040700000000000000000000000072
:10008000250028002B0000000000240027002A0083
:10009000040404040404040402020202020203032E
:1000A0000303030301020408102040800102040836
:1000B0001020010204081020360D0F1011241FBE5D
:1000C000CFEFD8E0DEBFCDBF11E0A0E0B1E0E6E5C4
:1000D000F7E202C005900D92AE3BB107D9F723E0DD
:1000E000AEEBB1E001C01D92A236B207E1F710E01D
:1000F000CDE5D0E004C02197FE010E947312CC35FB
:10010000D107C9F70E949C0D0C949E130C9400001B
:100110008230910538F0880F991F880F991F059735
:100120000197F1F7089590E0FC01EC55FF4F249101
:1001300080579F4FFC018491882399F090E0880FAD
:10014000991FFC01EA57FF4FA591B491FC01E458B7
:10015000FF4F859194918FB7F894EC91E22BEC933B
:100160008FBF089590E0FC01E859FF4F2491FC01F6
:10017000EC55FF4F3491FC01E057FF4FE491EE2323
:10018000C9F0222339F0233001F1A8F4213019F10C
:10019000223029F1F0E0EE0FFF1FE458FF4FA59148
:1001A000B4918FB7F894EC91611126C030953E233D
:1001B0003C938FBF08952730A9F02830C9F0243030
:1001C00049F7809180008F7D03C0809180008F77F8
:1001D00080938000DFCF84B58F7784BDDBCF84B57B
:1001E0008F7DFBCF8091B0008F778093B000D2CF0E
:1001F0008091B0008F7DF9CF3E2BDACF3FB7F894D6
:100200008091390290913A02A0913B02B0913C0258
:1002100026B5A89B05C02F3F19F00196A11DB11D61
:100220003FBFBA2FA92F982F8827BC01CD01620F9D
:10023000711D811D911D42E0660F771F881F991F58
:100240004A95D1F708958F929F92AF92BF92CF9225
:10025000DF92EF92FF924B015C010E94FE006B0166
:100260007C010E94FE006C197D098E099F09683E81
:10027000734081059105A8F321E0821A9108A10835
:10028000B10888EEC80E83E0D81EE11CF11C811471
:100290009104A104B10429F7FF90EF90DF90CF9073
:1002A000BF90AF909F908F90089508950895AF925A
:1002B000BF92CF92DF92EF92FF920F931F93CF9353
:1002C000DF936C017B018B01040F151FEB015E01B5
:1002D000AE18BF08C017D10759F06991D601ED914A
:1002E000FC910190F081E02DC6010995892B79F7E9
:1002F000C501DF91CF911F910F91FF90EF90DF909B
:10030000CF90BF90AF900895FC01538D448D252F61
:1003100030E0842F90E0821B930B541710F0CF969F
:10032000089501970895FC01918D828D981761F0D1
:10033000A28DAE0FBF2FB11D5D968C91928D9F5FE8
:100340009F73928F90E008958FEF9FEF0895FC01C7
:10035000918D828D981731F0828DE80FF11D858D7A
:1003600090E008958FEF9FEF0895FC01918D228D0D
:10037000892F90E0805C9F4F821B91098F73992792
:1003800008958DE892E00E94B50121E0892B09F4DF
:1003900020E0822F089580E090E0892B29F00E94D0
:1003A000C10181110C9400000895FC01A48DA80FD7
:1003B000B92FB11DA35ABF4F2C91848D90E00196A7
:1003C0008F739927848FA689B7892C93A089B189C7
:1003D0008C91837080648C93938D848D981306C068
:1003E0000288F389E02D80818F7D80830895EF92CC
:1003F000FF920F931F93CF93DF93EC0181E0888FDF
:100400009B8D8C8D98131AC0E889F989808185FFAE
:1004100015C09FB7F894EE89FF896083E889F98950
:1004200080818370806480839FBF81E090E0DF9152
:10043000CF911F910F91FF90EF900895F62E0B8DA5
:1004400010E00F5F1F4F0F731127E02E8C8D8E1160
:100450000CC00FB607FCFACFE889F989808185FFC7
:10046000F5CFCE010E94D501F1CFEB8DEC0FFD2F22
:10047000F11DE35AFF4FF0829FB7F8940B8FEA8982
:10048000FB8980818062CFCFCF93DF93EC01888D91
:100490008823B9F0AA89BB89E889F9898C9185FDFF
:1004A00003C0808186FD0DC00FB607FCF7CF8C918D
:1004B00085FFF2CF808185FFEDCFCE010E94D5016F
:1004C000E9CFDF91CF9108950895FC0183858F3F97
:1004D00019F061E00C94B2000895FC0180819181D3
:1004E000892B39F0A281B3819C9111968C919CBD8E
:1004F0008DBD83858F3F19F060E00C94B2000895A4
:10050000AF92BF92CF92DF92EF92FF920F931F9321
:10051000CF93DF93EC0188819981892B89F06EBD9F
:100520000DB407FEFDCFBEB48B2DDF91CF911F918F
:100530000F91FF90EF90DF90CF90BF90AF90089514
:100540008885998511E0892B09F010E8AA24A394E5
:10055000862F812309F0A12C062F2C813D814E810D
:100560005F8160E271EA87E090E00E945112F22E12
:10057000B02EE12CC22ED12CFF2019F0C6010E9412
:1005800088008A85877F09F042C08D858F3F89F07A
:10059000902F912381E009F480E08A1551F0EF85D6
:1005A000F8898F89992369F19081892B8083AA2406
:1005B000A394E989FA898081998D892B8083FF2012
:1005C00019F0C6010E9488008E858F3F39F0EB89B3
:1005D000FC898081988D892309F0E12AE989FA89CB
:1005E0009081898D8095892380838E858F3F09F046
:1005F000BE2C88859985892BB9F5110F1111BCCFB7
:1006000093CF9081809589238083A12CD2CFE989D3
:10061000FA898081998D892B8083FF2019F0C6018A
:100620000E9488008D858F3F49F0EF85F8898F897A
:10063000902F9123A9F09081892B8083E989FA89F1
:100640009081898D8095892380838E858F3F69F283
:10065000EB89FC898081988D892339F2E12AC5CF05
:10066000908180958923E9CF1695C8CF8F929F926C
:10067000AF92BF92CF92DF92EF92FF920F931F93B0
:10068000CF93DF937C014B016A01B22EA32E0E940F
:100690006D02E401C80CD91CCC15DD0569F4CB2D25
:1006A000DA2D0C0F1D1FC017D10759F06FEFC701CE
:1006B0000E9480028993F7CF6991C7010E9480024E
:1006C000EBCFC7010E94650281E0DF91CF911F91BE
:1006D0000F91FF90EF90DF90CF90BF90AF909F90E1
:1006E0008F9008958F929F92AF92BF92CF92DF9298
:1006F000EF92FF920F931F93CF93DF937C01B62E5F
:10070000A72E6A0149010E946D02E401080D191D1E
:10071000C017D10761F4CB2DDA2DCC0EDD1ECC1520
:10072000DD0551F06991C7010E948002F8CF6991FF
:10073000C7010E948002ECCFC7010E94650281E0E0
:10074000DF91CF911F910F91FF90EF90DF90CF90AD
:10075000BF90AF909F908F9008952091DF01260F5A
:100760003327331F21323105ECF420916302FC0161
:1007700090E080E0243069F082E00895A091DF01EC
:100780002191AC0141545E4FA40FB52FB11D2C93A4
:100790000196861798F38091DF01680F6093DF015F
:1007A00080E0089581E008951092630281E08093D3
:1007B000620210923D0261E082E10E94B20061E0BB
:1007C00083E10E94B200E9EBF0E080818E7F8083BC
:1007D00080818D7F808388E48093B80085E4809356
:1007E000BC000895CF93DF9391E09093BE018823DE
:1007F000B9F0C091B800D091BA008091BC008A7B5A
:100800008093BC0060E082E10E94B20060E083E17E
:100810000E94B2000E94D403D093BA00C093B800E3
:10082000DF91CF9108958F929F92AF92BF92CF9216
:10083000DF92EF92FF920F931F93CF93DF93D091AC
:100840008C02D13208F0D7C0182FC0918B020E94C1
:10085000FE006B017C018091630281116BC082E01C
:1008600080936302109362028FEF80936102109273
:100870006002D0935F02ABE6B2E0EFE3F2E080E02B
:10088000D81391C010923E0280913E02CC0FC82B2B
:10089000C0933E0280913D02813009F088C01092E1
:1008A0003D020E94FE006B017C0180913E0280931C
:1008B000BB008091650290916602A0916702B091A1
:1008C0006802892B8A2B8B2BA1F00E94FE000091DD
:1008D00065021091660220916702309168026C19DE
:1008E0007D098E099F09061717072807390708F49D
:1008F00042C08091BC0083FDD8CF85EC8093BC00C2
:100900000E94FE006B017C0180916302823009F439
:1009100050C0809161028F3F09F46FC080916102E5
:10092000803209F46CC080916102803309F469C09F
:1009300084E026C08091650290916602A0916702D2
:10094000B0916802892B8A2B8B2B09F484CF0E94EB
:10095000FE008090650290906602A0906702B090C1
:1009600068026C197D098E099F0986169706A806EC
:10097000B90608F070CF809164020E94F20385E00E
:1009800010926A0210928C0210926902DF91CF914C
:100990001F910F91FF90EF90DF90CF90BF90AF909D
:1009A0009F908F9008959D9191938F5F69CF85EE71
:1009B000A5CF8091650290916602A0916702B091E7
:1009C0006802892B8A2B8B2B09F49ECF0E94FE0094
:1009D00000916502109166022091670230916802D1
:1009E0006C197D098E099F09061717072807390713
:1009F00008F08ACFC0CF81E0C3CF80E0C1CF82E0D2
:100A0000BFCF83E0BDCF1F93CF93DF93EA01122FB7
:100A1000DC0111968D919C91DC01ED91FC9102809D
:100A2000F381E02D0995C817D90729F4812F0E9479
:100A3000130491E0811190E0892FDF91CF911F91F4
:100A40000895CF92DF92EF92FF920F931F93CF936F
:100A5000DF9300D0CDB7DEB7FC014787508B618BA9
:100A6000728B8285882371F14487452F562F672F1B
:100A70007727882349F143877F018BE0E80EF11C3B
:100A80009681878199838A83C080D180C114D104E3
:100A900009F443C0018510E098012E5F3F4FD60155
:100AA00014968D919C918217930780F480E00F90AB
:100AB0000F90DF91CF911F910F91FF90EF90DF90FA
:100AC000CF9008954387D1CF4487D6CFF601818157
:100AD0009281208131E03093690220938B02109241
:100AE0006A0210928C020115110541F421E042E0E6
:100AF00050E0B701C6010E940305D9CFDC01ED919A
:100B0000FC910280F381E02DA801BE016F5F7F4F51
:100B100009950817190751F6E9CFA281B3811097FB
:100B200029F224813581018510E02330310579F4E3
:100B30008E7F89839A830F5F1F4F9E012F5F3F4FE8
:100B400042E050E0B701CD010E947203B0CF211501
:100B5000310519F49F779983F0CF2230310511F4D4
:100B60009068F9CF2130310541F79F779064F3CF3A
:100B7000EF92FF920F931F93CF93DF93CDB7DEB722
:100B8000A6970FB6F894DEBF0FBECDBF06E313E005
:100B900080E090E4A1E0B0E0F80184839583A6832F
:100BA000B78384E090E0A0E0B0E080879187A287DF
:100BB000B38780E090E0A0E0B0E484879587A687C3
:100BC000B787808191811BA21CA21DA21EA29D8BB2
:100BD0008C8B1F8A1E8AFF24F394FD8E85E090E0A3
:100BE0009B8F8A8FFE8E82E0E82EEC8E40E050E4F0
:100BF00061E070E0CE0144960E942105F8018081F9
:100C00009181188A198A1A8A1B8A9A8389831C827D
:100C10001B82FA8618861F82FB86E9864FE959E314
:100C200060E070E0CE0101960E942105F801828308
:100C3000A6960FB6F894DEBF0FBECDBFDF91CF9161
:100C40001F910F91FF90EF900895CF93DF93EC01E8
:100C50008B818823A1F0888191E090936902809331
:100C60008B0210926A0210928C0281E00E9413049F
:100C700091E0811190E0892FDF91CF91089510923A
:100C800027021092260210926A0210928C020E9491
:100C9000D40385E591E0909325028093240286E5B4
:100CA00091E0909323028093220281E08B83CE0116
:100CB0000E942506982F8111CECFDDCF0895E091B7
:100CC000270280912602E81730F4F0E0EE5FFD4F36
:100CD000808190E008958FEF9FEF08959091270213
:100CE000809126022FEF3FEF981748F4E92FF0E0AC
:100CF000EE5FFD4F208130E09F5F90932702C90196
:100D000008958091260290912702891B990B0895DE
:100D1000CF92DF92EF92FF920F931F93CF93DF93C7
:100D20007C01CB018A0120916902222389F0EB0129
:100D30006B01C40ED51ECC15DD0569F06991D70194
:100D4000ED91FC910190F081E02DC7010995F3CF61
:100D5000642F0E94AD03C801DF91CF911F910F91C5
:100D6000FF90EF90DF90CF900895CF93DF931F9285
:100D7000CDB7DEB76983209169022223F9F0209173
:100D80008C02203258F021E030E0FC0133832283D2
:100D900090E080E00F90DF91CF91089580916A02FA
:100DA000E82FF0E0E559FD4F998190838F5F8093A4
:100DB0006A0280938C0281E090E0ECCF61E0CE018A
:100DC00001960E94AD03F7CF90E080E00895CF93A5
:100DD000DF93EC0160E08E810E94B20061E08E81C1
:100DE0000E94B20060E08E810E94B2008BE891E028
:100DF0000197F1F7DF91CF910895CF92DF92EF92B3
:100E0000FF920F931F93CF93DF936C017C0187E0D8
:100E1000E80EF11CD0E0C0E0062F10E0B8010C2E67
:100E200002C0759567950A94E2F76170F7018191A8
:100E30007F010E94B2002196C430D10579F7C60126
:100E4000DF91CF911F910F91FF90EF90DF90CF90A6
:100E50000C94E706CF92DF92EF92FF920F931F93CD
:100E6000CF93DF93EC01F62E642F8C810E94B200A9
:100E70008D818F3F19F060E00E94B2000F2D10E0CD
:100E80008F8584FF25C06E0187E0C80ED11CF12C30
:100E9000E12CB8010E2C02C0759567950A94E2F713
:100EA0006170F60181916F010E94B200FFEFEF1AAD
:100EB000FF0A88E0E816F10461F7CE01DF91CF91D7
:100EC0001F910F91FF90EF90DF90CF900C94E70669
:100ED000B80184E0759567958A95E1F7CE010E9487
:100EE000FD066F2DCE01DF91CF911F910F91FF90E5
:100EF000EF90DF90CF900C94FD0640E0682F86E4E1
:100F000093E00C942A0781E00E947D078BE39FE128
:100F10000197F1F70895CF93DF93613029F0909115
:100F200055039860909355036093590310925A03A8
:100F300090E490935B0380935C03805C80935D03FB
:100F400080914A030E94930080914B038F3F11F0E0
:100F50000E94930080914C030E949300C6E4D3E06A
:100F60009E01265433408091550384FD0AC084E0DD
:100F700090E02196281739073CF48E810E94930057
:100F8000EFCF88E090E0F5CF8BE39DE00197F1F79C
:100F900060E080914A030E94B20060E080914C03BF
:100FA0000E94B20080914B038F3F19F060E00E94D5
:100FB000B2008091550384FD34C063E086E493E081
:100FC0000E94FD06CBE4D6E4CE010197F1F763E081
:100FD00086E493E00E94FD062197F1F763E086E442
:100FE00093E00E94FD0683E592E00197F1F762E04D
:100FF00086E493E00E94FD068091550380620E9482
:101000007D0784E0809356038CE00E947D070E9458
:10101000830782E08093570386E0DF91CF910C94A1
:101020007D0780620E947D078BE496E40197F1F7CB
:101030008091550380620E947D0783E592E00197CD
:10104000F1F78091550380620E947D07D5CF909182
:101050005903891710F08FEF890FE82FF0E0EA5B52
:10106000FC4F848980680C947D0741E00E942A0728
:1010700081E090E008952F923F924F925F926F929D
:101080007F928F929F92AF92BF92CF92DF92EF9218
:10109000FF920F931F93CF93DF9300D000D000D027
:1010A000CDB7DEB77C017C836B830B969E838D83EB
:1010B000D70116969C91169717968C91179799833E
:1010C0008A836D907C9011976114710409F44CC16E
:1010D00019964C9150E0F30184819581841795070E
:1010E000A8F0808191E09093690280938B02109226
:1010F0006A0210928C0220E0BE016F5F7F4FC30135
:101100000E940305D12CC12C81111AC080E02696C3
:101110000FB6F894DEBF0FBECDBFDF91CF911F9108
:101120000F91FF90EF90DF90CF90BF90AF909F9086
:101130008F907F906F905F904F903F902F90089589
:10114000D30114968D919C9102E010E00C191D09B9
:101150008017910708F48C01F30150800E94FE0073
:101160004B015C0180916302811176C0B02EF0E2E8
:10117000F01710F440E2B42E81E08093630221E086
:1011800082E090E0801B910BC816D90608F420E09D
:10119000209362029FEF90936102109260028FEFA2
:1011A0008B0D80935F02A1E0A0933E0280913E02EE
:1011B000550C582A50923E0280913D02813009F030
:1011C00093C010923D020E94FE001B012C018091F1
:1011D0003E028093BB008091650290916602A091CF
:1011E0006702B0916802892B8A2B8B2BA1F00E9499
:1011F000FE00209165023091660240916702509195
:101200006802621973098409950926173707480788
:10121000590708F442C08091BC0083FDD8CFB5ECDB
:10122000B093BC000E94FE001B012C018091630260
:10123000813009F45DC0809160028B1510F4B0908C
:101240006002AFE3B2E0E2E0F2E080E08B1551F142
:101250009D9191938F5FFACF809165029091660284
:10126000A0916702B0916802892B8A2B8B2B09F41D
:1012700079CF0E94FE002091650230916602409174
:10128000670250916802681979098A099B09261733
:1012900037074807590708F065CF809164020E941C
:1012A000F203B12C10922702B0922602B01611065A
:1012B00009F02CCF8D809E808C0C9D1C5401C501A3
:1012C0008819990980179107A8F5D30111968D9176
:1012D0009C91DC01ED91FC910284F385E02D099550
:1012E000F50181935F01EBCFE5EEE093BC009ACF6F
:1012F0008091650290916602A0916702B0916802A8
:10130000892B8A2B8B2B09F491CF0E94FE00209110
:10131000650230916602409167025091680262193D
:10132000730984099509261737074807590708F0F4
:101330007DCFB3CFC00ED11EF2E0CF16D10408F49A
:10134000FFCEF7018285811142C0848590E0982FFD
:101350008827AB81BC8111969C938E932385822B29
:101360008D939C9381E0D3CE1296ED91FC911397CF
:10137000309709F4CBCE14962D913C911597199680
:101380004C9150E02330310591F4816089839A8338
:101390004F5F5F4F02E010E02D813E81BE016F5F25
:1013A0007F4FCF010E9436038111CBCFB0CE2115E4
:1013B000310519F490689983EDCF2230310511F48D
:1013C0009F77F9CF2130310529F7906CF4CF8385D1
:1013D00090E0982F8827AB81BC8111969C938E93C7
:1013E0002485BDCFFB0101900020E9F73197AF01C3
:1013F000461B570BDC01ED91FC910280F381E02D3F
:1014000009948F929F92AF92BF92EF92FF920F93A7
:101410001F93CF93DF93CDB7DEB7A1970FB6F894A4
:10142000DEBF0FBECDBF7C01FA01CB0119A2223075
:1014300008F42AE08E010F5D1F4F822E912CB12CF3
:10144000A12CBF01A50194010E945112F901CA010A
:101450006A300CF5605DD8016E938D01232B242B2F
:10146000252B79F790E080E0109721F0BD01C701AE
:101470000E94F209A1960FB6F894DEBF0FBECDBF51
:10148000DF91CF911F910F91FF90EF90BF90AF90A0
:101490009F908F900895695CDECF2F923F924F927C
:1014A0005F926F927F928F929F92AF92BF92CF92F4
:1014B000DF92EF92FF921F93CF93DF93EC016A01CB
:1014C0007B01722EAB019601CB01B6010E944C123A
:1014D00066E371E0811126C046015701E894B7F830
:1014E0002FEF3FEF4FE75FE7C501B4010E944C12B9
:1014F00081110CC02FEF3FEF4FE75FE7C501B4014B
:101500000E9482106AE371E0181664F02FEF3FEF3B
:101510004FE75FE4C701B6010E94DA111816B4F470
:101520006EE371E0CE01DF91CF911F91FF90EF90BC
:10153000DF90CF90BF90AF909F908F907F906F90F3
:101540005F904F903F902F900C94F2092FEF3FEF58
:101550004FE75FECC701B6010E94821087FDE0CF24
:1015600020E030E0A901C701B6010E948210312CB1
:10157000212C87FF0DC0E881F9810190F081E02DD9
:101580006DE2CE0109951C01F7FAF094F7F8F0949A
:1015900010E060E070E080E09FE3711641F020E031
:1015A00030E040E251E40E9487101F5FF6CFA701B0
:1015B00096010E9416102B013C010E94F9104B016C
:1015C0005C012AE0BC01A401CE010E94010A7C0159
:1015D000E20CF31C1123E1F1C501B4010E942811B2
:1015E0009B01AC01C301B2010E9415104B015C01CB
:1015F000E881F9810190F081E02D6EE2CE0109953C
:10160000E80EF91E115020F120E030E040E251E4F4
:10161000C501B4010E94DF112B013C010E94F910A9
:101620004B01B12CA12C2AE0B501A401CE010E94EE
:10163000010AE80EF91EC501B4010E9428119B01A0
:10164000AC01C301B2010E9415104B015C01DACF5D
:10165000C701DF91CF911F91FF90EF90DF90CF9066
:10166000BF90AF909F908F907F906F905F904F90C2
:101670003F902F9008950C94F20985ED8093BC0063
:101680008091650290916602A0916702B091680214
:101690000796A11DB11D23E0B695A795979587954F
:1016A0002A95D1F72091BC0024FD03C0109263025B
:1016B00008954091650250916602609167027091B1
:1016C0006802452B462B472B69F30097A105B1050E
:1016D00041F02AE22A95F1F700C00197A109B1096A
:1016E000E1CF809164020C94F2031F920F920FB627
:1016F0000F9211242F933F938F939F93AF93BF9398
:101700008091350290913602A0913702B091380253
:101710003091340223E0230F2D3758F50196A11D97
:10172000B11D209334028093350290933602A0932A
:101730003702B09338028091390290913A02A09119
:101740003B02B0913C020196A11DB11D809339026C
:1017500090933A02A0933B02B0933C02BF91AF91A9
:101760009F918F913F912F910F900FBE0F901F90DF
:10177000189526E8230F0296A11DB11DD2CF1F9206
:101780000F920FB60F9211242F933F934F935F93B5
:101790006F937F938F939F93AF93BF93EF93FF9339
:1017A0008DE892E00E94D501FF91EF91BF91AF913A
:1017B0009F918F917F916F915F914F913F912F9169
:1017C0000F900FBE0F901F9018951F920F920FB69B
:1017D0000F9211242F938F939F93EF93FF93E09198
:1017E0009D02F0919E028081E091A302F091A402FB
:1017F00082FD1BC090818091A6028F5F8F73209124
:10180000A702821741F0E091A602F0E0E357FD4FF6
:10181000958F8093A602FF91EF919F918F912F91C9
:101820000F900FBE0F901F9018958081F4CF1F92DC
:101830000F920FB60F9211242F933F934F935F9304
:101840006F937F938F939F93AF93BF93EF93FF9388
:101850008091B900887F803609F44AC0F0F588325B
:1018600009F4A7C018F5803109F49BC0B8F48823A7
:1018700009F4F9C0883009F494C0FF91EF91BF9149
:10188000AF919F918F917F916F915F914F913F9118
:101890002F910F900FBE0F901F901895883109F46B
:1018A00088C0803251F78093610214C0803409F4FB
:1018B0009DC040F48033B9F38833F9F68093610218
:1018C00085ECB0C0803509F485C0883509F496C030
:1018D000883499F60E943D0BD0CF883909F48CC02A
:1018E00038F5883729F050F4883611F0803729F61A
:1018F00083E0809363021092010257C0883809F494
:101900007BC0803919F0803809F0B7CF809101028F
:10191000803208F071C0E091010281E08E0F809367
:1019200001028091BB00F0E0EF51FE4F80833DC08B
:10193000803B39F0E0F4803A09F479C0883A09F044
:101940009CCF84E0809363021092E0011092DF014B
:10195000E0912402F091250209958091DF01811127
:101960000FC081E08093DF011092BF0109C0803C6D
:1019700009F4A6CF883C09F4A3CF883B09F07DCFBA
:10198000E091E00181E08E0F8093E001F0E0E1540E
:10199000FE4F80818093BB009091E0018091DF0138
:1019A00029C080913E028093BB0085EC8093BC00EF
:1019B00064CF9091600280915F02981758F5E09192
:1019C000600281E08E0F80936002F0E0E15CFD4FE9
:1019D0008081E9CFE091600281E08E0F8093600208
:1019E0008091BB00F0E0E15CFD4F8083909160024C
:1019F00080915F029817C8F285E8D8CFE091600225
:101A000081E08E0F809360028091BB00F0E0E15C8A
:101A1000FD4F80838091620281115CCF81E08093D1
:101A20003D0284EA8093BC001092630226CF85ECCD
:101A30008093BC001092630280910102803230F4E6
:101A4000E0910102F0E0EF51FE4F1082609101023F
:101A500070E0E0912202F091230281EE91E009957D
:101A6000109201020ACF1092610234CFEDE8F2E049
:101A70001382128288EE93E0A0E0B0E08483958325
:101A8000A683B7832AE031E03183208325EC30E060
:101A90003587248724EC30E03787268720EC30E038
:101AA000318B208B21EC30E0338B228B22EC30E029
:101AB000358B248B26EC30E0378B268B118E128EE3
:101AC000138E148EEAE2F3E01382128284839583EC
:101AD000A683B7838CE191E091838083E6E4F3E011
:101AE000138212828EE291E09183808382E084836C
:101AF0008FEF858383E0868384E0878385E080871A
:101B000086E0818787E0828713861486158616868D
:101B1000178661E080E10E948B07E6E3F3E0118223
:101B2000108280E4838310861186128613861486C1
:101B30001586168617860895CF93DF93CDB7DEB747
:101B4000A8970FB6F894DEBF0FBECDBF789484B5CA
:101B5000826084BD84B5816084BD85B5826085BDA9
:101B600085B5816085BD80916E00816080936E0037
:101B70001092810080918100826080938100809129
:101B800081008160809381008091800081608093DA
:101B900080008091B10084608093B1008091B0009A
:101BA00081608093B00080917A00846080937A0095
:101BB00080917A00826080937A0080917A008160BF
:101BC00080937A0080917A00806880937A001092E6
:101BD000C100E0919D02F0919E0282E08083E0913D
:101BE0009902F0919A021082E0919B02F0919C027E
:101BF0008FEC80831092A502E091A102F091A202E5
:101C000086E08083E0919F02F091A0028081806154
:101C10008083E0919F02F091A002808188608083A0
:101C2000E0919F02F091A002808180688083E09122
:101C30009F02F091A00280818F7D808364E084E127
:101C40000E948B0780E00E94270862E471E086E42E
:101C500093E00E943B0B81E00E9427086CE471E056
:101C600086E493E00E943B0B60ED77E080E090E03B
:101C70000E9423010E9483078091360390913703CD
:101C8000892BA9F486E090E00E947912FC018091F2
:101C9000390380838AE293E092838183138280E216
:101CA00090E095838483F0933703E09336030091AB
:101CB00036031091370310922702109226021092D9
:101CC0006A0210928C020E94D40385E591E0909301
:101CD00025028093240286E591E09093230280936D
:101CE000220281E0F8018383C8010E942506811148
:101CF00018C00E94270867E571E086E493E00E941F
:101D00003B0B81E00E94270866E671E086E493E0E1
:101D10000E943B0B6AE070E080E090E00E942301AB
:101D2000F9CF0E94B8050E9483070E94B80580E0A1
:101D30000E94270862E771E086E493E00E943B0B73
:101D400081E00E94270864E871E086E493E00E9445
:101D50003B0B82E00E94270865E971E086E493E08E
:101D60000E943B0B60ED77E080E090E00E94230151
:101D70000E94830711E002E022E0C22ED12C35E060
:101D8000A32EB12C44E0842E912C50E0652E50E01F
:101D9000752E0E9483078091360390913703188A2D
:101DA000198A1A8A1B8A9A8389831C821B821A8742
:101DB00081E090E098878F831B870987BE016C5E66
:101DC0007F4FCE0101960E943B08809338036C89B7
:101DD0007D89072E000C880B990B0E942A112AE09E
:101DE00037ED43E25CE30E94DF11609330027093B1
:101DF00031028093320290933302809136039091A6
:101E00003703188A198A1A8A1B8A9A8389831C8243
:101E10001B821A87D886CF821B870987BE016C5E1A
:101E20007F4FCE0101960E943B0880933803EC88D7
:101E3000FD8883E0F694E7948A95E1F7EE0CFF1CA9
:101E4000EE0CFF1C20E030E04AE754E460913002E1
:101E50007091310280913202909133020E9487107A
:101E60001B012C01B701FF0C880B990B0E942A1152
:101E70002FE632E143E85AE30E94DF119B01AC01F7
:101E8000C201B1010E94161060932C0270932D02C2
:101E900080932E0290932F02809136039091370306
:101EA0001BA21CA21DA21EA29D8B8C8B1F8A1E8AA8
:101EB0001D8FBB8EAA8E1E8F0C8F40913A035091BE
:101EC0003B0360913C0370913D03CE0144960E9418
:101ED00021058091360390913703188A198A1A8A4E
:101EE0001B8A9A8389831C821B821A8798868F8219
:101EF0001B870987BE01695D7F4FCE0101960E9455
:101F00003B08809338036FA178A5072E000C880B3F
:101F1000990B0E942A111B012C0160913E037091C4
:101F20003F0380914003909141030E9428119B013F
:101F3000AC01C201B1010E948710AB01BC0140930A
:101F400028025093290260932A0270932B0222E008
:101F50008DE892E00E944D0A60EA71E08DE892E01F
:101F60000E943B0B40912C0250912D0260912E0259
:101F700070912F0222E08DE892E00E944D0A62EA01
:101F800071E08DE892E00E94F20980E00E9427084B
:101F900065EA71E086E493E00E943B0B40912C02DD
:101FA00050912D0260912E0270912F0222E086E462
:101FB00093E00E944D0A6FEA71E086E493E00E948C
:101FC0003B0B81E00E94270861EB71E086E493E01F
:101FD0000E943B0B409128025091290260912A02F5
:101FE00070912B0222E086E493E00E944D0A6BEB95
:101FF00071E086E493E00E943B0B68EE73E080E0C2
:1020000090E00E9423016114710409F4C2CE0E9481
:10201000C101882309F4BDCE0E940000BACE809190
:102020003603909137030C9415135058BB27AA27F9
:102030000E942D100C94A0110E94921138F00E9461
:10204000991120F039F49F3F19F426F40C948F1164
:102050000EF4E095E7FB0C948911E92F0E94B11171
:1020600058F3BA17620773078407950720F079F4CD
:10207000A6F50C94D3110EF4E0950B2EBA2FA02DDB
:102080000B01B90190010C01CA01A0011124FF2725
:10209000591B99F0593F50F4503E68F11A16F04020
:1020A000A22F232F342F4427585FF3CF469537951F
:1020B0002795A795F0405395C9F77EF41F16BA0BE4
:1020C000620B730B840BBAF09150A1F0FF0FBB1F92
:1020D000661F771F881FC2F70EC0BA0F621F731FDB
:1020E000841F48F4879577956795B795F7959E3F38
:1020F00008F0B0CF9395880F08F09927EE0F9795C9
:10210000879508950E94651108F481E008950E9462
:102110009B100C94A0110E94991158F00E949211EA
:1021200040F029F45F3F29F00C94891151110C946F
:10213000D4110C948F110E94B11168F39923B1F35B
:10214000552391F3951B550BBB27AA2762177307DD
:10215000840738F09F5F5F4F220F331F441FAA1F71
:10216000A9F335D00E2E3AF0E0E832D0915050402D
:10217000E695001CCAF72BD0FE2F29D0660F771FDB
:10218000881FBB1F261737074807AB07B0E809F0C1
:10219000BB0B802DBF01FF2793585F4F3AF09E3F46
:1021A000510578F00C9489110C94D4115F3FE4F33D
:1021B000983ED4F3869577956795B795F7959F5F89
:1021C000C9F7880F911D9695879597F90895E1E0D5
:1021D000660F771F881FBB1F621773078407BA0734
:1021E00020F0621B730B840BBA0BEE1F88F7E0958F
:1021F00008950E94B91188F09F5798F0B92F992738
:10220000B751B0F0E1F0660F771F881F991F1AF0E1
:10221000BA95C9F714C0B13091F00E94D311B1E062
:1022200008950C94D311672F782F8827B85F39F061
:10223000B93FCCF3869577956795B395D9F73EF47A
:1022400090958095709561957F4F8F4F9F4F089522
:10225000E89409C097FB3EF4909580957095619540
:102260007F4F8F4F9F4F9923A9F0F92F96E9BB27F6
:102270009395F695879577956795B795F111F8CF72
:10228000FAF4BB0F11F460FF1BC06F5F7F4F8F4FDD
:102290009F4F16C0882311F096E911C0772321F0D3
:1022A0009EE8872F762F05C0662371F096E8862F6B
:1022B00070E060E02AF09A95660F771F881FDAF7C2
:1022C000880F9695879597F90895990F0008550FEF
:1022D000AA0BE0E8FEEF16161706E807F907C0F0AC
:1022E00012161306E407F50798F0621B730B840BB4
:1022F000950B39F40A2661F0232B242B252B21F48E
:1023000008950A2609F4A140A6958FEF811D811D2D
:10231000089597F99F6780E870E060E008959FEF67
:1023200080EC089500240A9416161706180609066C
:10233000089500240A94121613061406050608953B
:10234000092E0394000C11F4882352F0BB0F40F4C3
:10235000BF2B11F460FF04C06F5F7F4F8F4F9F4F03
:10236000089557FD9058440F551F59F05F3F71F085
:102370004795880F97FB991F61F09F3F79F08795EC
:102380000895121613061406551FF2CF4695F1DF75
:1023900008C0161617061806991FF1CF8695710505
:1023A000610508940895E894BB2766277727CB0139
:1023B00097F908950E94651108F48FEF08950E941F
:1023C000F2110C94A0110E94921138F00E94991100
:1023D00020F0952311F00C9489110C948F11112485
:1023E0000C94D4110E94B11170F3959FC1F3950F15
:1023F00050E0551F629FF001729FBB27F00DB11D89
:10240000639FAA27F00DB11DAA1F649F6627B00D18
:10241000A11D661F829F2227B00DA11D621F739F01
:10242000B00DA11D621F839FA00D611D221F749F0F
:102430003327A00D611D231F849F600D211D822F56
:10244000762F6A2F11249F5750409AF0F1F088237D
:102450004AF0EE0FFF1FBB1F661F771F881F9150AA
:102460005040A9F79E3F510580F00C9489110C94BF
:10247000D4115F3FE4F3983ED4F386957795679542
:10248000B795F795E7959F5FC1F7FE2B880F911DD4
:102490009695879597F908950E946511880B990B79
:1024A0000895A1E21A2EAA1BBB1BFD010DC0AA1F95
:1024B000BB1FEE1FFF1FA217B307E407F50720F0AD
:1024C000A21BB30BE40BF50B661F771F881F991F28
:1024D0001A9469F760957095809590959B01AC0171
:1024E000BD01CF010895EE0FFF1F0590F491E02D7F
:1024F00009940F931F93CF93DF938230910510F4CB
:1025000082E090E0E0916003F091610330E020E030
:10251000B0E0A0E0309799F42115310509F44AC0E4
:10252000281B390B24303105D8F58A819B81611530
:10253000710589F1FB0193838283FE0111C0408103
:1025400051810281138148175907E0F04817590754
:1025500099F4109761F012960C93129713961C93AE
:102560003296CF01DF91CF911F910F910895009383
:10257000600310936103F4CF2115310551F0421728
:10258000530738F0A901DB019A01BD01DF01F80111
:10259000C1CFEF01F9CF9093610380936003CDCF5A
:1025A000FE01E20FF31F8193919322503109398389
:1025B0002883D7CF20915E0330915F03232B41F412
:1025C000209102013091030130935F0320935E0359
:1025D00020910001309101012115310541F42DB701
:1025E0003EB74091040150910501241B350BE09149
:1025F0005E03F0915F03E217F307A0F42E1B3F0B7D
:102600002817390778F0AC014E5F5F4F2417350764
:1026100048F04E0F5F1F50935F0340935E0381931A
:1026200091939FCFF0E0E0E09CCFCF93DF930097B2
:10263000E9F0FC01329713821282A0916003B091FD
:102640006103ED0130E020E01097A1F42081318199
:10265000820F931F20915E0330915F032817390783
:1026600009F061C0F0935F03E0935E03DF91CF91C7
:102670000895EA01CE17DF07E8F54A815B819E01E4
:1026800041155105B1F7E901FB83EA83499159915D
:10269000C40FD51FEC17FD0761F48081918102966C
:1026A000840F951FE90199838883828193819B839D
:1026B0008A83F0E0E0E012968D919C911397009749
:1026C000B9F52D913C911197CD010296820F931F80
:1026D00020915E0330915F032817390739F6309750
:1026E00051F51092610310926003B0935F03A093C1
:1026F0005E03BCCFD383C28340815181840F951F79
:10270000C817D90761F44E5F5F4F88819981480FE0
:10271000591F518340838A819B8193838283211532
:10272000310509F0B0CFF0936103E09360039ECFD1
:10273000FD01DC01C0CF13821282D7CF10E0CDE5BE
:10274000D0E004C0FE010E9473122196CE35D1075D
:06275000C9F7F894FFCF69
:1027560000006203800000000000F70157018401B9
:102766004402B5019301A70100000000B5068806E2
:10277600E4065E0681066E065F0600000000350868
:102786005701E40664026E616E00696E66006F763C
:102796006600566174696D6574726F006469676975
:1027A60074616C204443004661696C656420746FF3
:1027B6002066696E6400494E41323139206368698A
:1027C60070004D6561737572696E6720766F6C7403
:1027D60061676500616E642063757272656E742050
:1027E6007769746800494E41323139202E2E2E0009
:1027F6002C000D0A00566F6C746167653A2000560E
:0E2806000043757272656E743A20006D4100D9
:00000001FF
